S01100004750494F5F524551392E7372656364
S11300000C942A000C9434000C9434000C943400A6
S11300100C9434000C9434000C9434000C9434008C
S11300200C9434000C9434000C9434000C9434007C
S11300300C9434000C9434000C9434000C9434006C
S11300400C9434000C9434000C9434000C9434005C
S11300500C94340011241FBECFE5D8E0DEBFCDBF21
S11300600E943B010C9485010C9400008130A1F0A6
S113007028F08230F9F0833059F10895442319F0BF
S11300804F3F31F008958AB3609568236ABB0895A1
S11300908AB3682B6ABB0895442319F04F3F31F0AB
S11300A0089587B36095682367BB089587B3682B69
S11300B067BB0895442319F04F3F31F0089584B38A
S11300C06095682364BB089584B3682B64BB08956A
S11300D0442319F04F3F31F0089581B360956823AC
S11300E061BB089581B3682B61BB08958130A1F091
S11300F028F08230F9F0833059F10895442319F03F
S11301004F3F31F008958BB3609568236BBB08951E
S11301108BB3682B6BBB0895442319F04F3F31F028
S1130120089588B36095682368BB089588B3682BE5
S113013068BB0895442319F04F3F31F0089585B307
S11301406095682365BB089585B3682B65BB0895E6
S1130150442319F04F3F31F0089582B3609568232A
S113016062BB089582B3682B62BB0895813061F04D
S113017028F0823079F0833099F008954FEF60E1F0
S113018081E00E94360008954FEF60E281E00E9412
S1130190360008954FEF60E481E00E943600089530
S11301A04FEF60E881E00E9436000895813061F0ED
S11301B028F0823079F0833099F008954FEF60E1B0
S11301C081E00E94760008954FEF60E281E00E9492
S11301D0760008954FEF60E481E00E947600089570
S11301E04FEF60E881E00E9476000895813061F06D
S11301F028F0823079F0833099F0089540E060E18E
S113020081E00E947600089540E060E281E00E946F
S11302107600089540E060E481E00E94760008954D
S113022040E060E881E00E947600089582E00E9448
S1130230F60081E00E94D60068EE73E080E090E072
S11302400E94470181E00E94F60083E00E94D600EC
S113025068EE73E080E090E00E94470183E00E9432
S1130260F60082E00E94D60068EE73E080E090E041
S11302700E944701089581E00E94B60082E00E9436
S1130280B60083E00E94B6000E941601FDCFCF9213
S1130290DF92EF92FF92CF93DF9300D000D0CDB7DF
S11302A0DEB76B017C0119821A821B821C82672BC8
S11302B0682B692BC9F41EC089819A81AB81BC81EA
S11302C00196A11DB11D89839A83AB83BC83215000
S11302D0310991F74F5F5F4F6F4F7F4FC416D506BB
S11302E0E606F70621F406C040E050E0BA012EE528
S11302F031E0E2CF0F900F900F900F90DF91CF91EC
S1110300FF90EF90DF90CF900895F894FFCF18
S9030000FC
