S01100004750494F5F524551382E7372656365
S11300000C942A000C9434000C9434000C943400A6
S11300100C9434000C9434000C9434000C9434008C
S11300200C9434000C9434000C9434000C9434007C
S11300300C9434000C9434000C9434000C9434006C
S11300400C9434000C9434000C9434000C9434005C
S11300500C94340011241FBECFE5D8E0DEBFCDBF21
S11300600E944A010C9474020C9400008130A1F0A7
S113007028F08230F9F0833059F10895442319F0BF
S11300804F3F31F008958AB3609568236ABB0895A1
S11300908AB3682B6ABB0895442319F04F3F31F0AB
S11300A0089587B36095682367BB089587B3682B69
S11300B067BB0895442319F04F3F31F0089584B38A
S11300C06095682364BB089584B3682B64BB08956A
S11300D0442319F04F3F31F0089581B360956823AC
S11300E061BB089581B3682B61BB08958130A1F091
S11300F028F08230F9F0833059F10895442319F03F
S11301004F3F31F008958BB3609568236BBB08951E
S11301108BB3682B6BBB0895442319F04F3F31F028
S1130120089588B36095682368BB089588B3682BE5
S113013068BB0895442319F04F3F31F0089585B307
S11301406095682365BB089585B3682B65BB0895E6
S1130150442319F04F3F31F0089582B3609568232A
S113016062BB089582B3682B62BB0895813079F035
S113017028F08230A9F08330E1F024C08AB390E003
S113018002C0959587956A95E2F781701CC087B384
S113019090E002C0959587956A95E2F7817013C047
S11301A084B390E002C0959587956A95E2F78170D3
S11301B00AC081B390E002C0959587956A95E2F7ED
S11301C0817001C080E091E0813009F090E0892FD6
S11301D081950895813061F028F0823079F0833080
S11301E099F008954FEF60E181E00E943600089590
S11301F04FEF60E281E00E94360008954FEF60E423
S113020081E00E94360008954FEF60E881E00E948B
S113021036000895813061F028F0823079F083301F
S113022099F008954FEF60E181E00E94760008950F
S11302304FEF60E281E00E94760008954FEF60E4A2
S113024081E00E94760008954FEF60E881E00E940B
S113025076000895813061F028F0823079F083309F
S113026099F0089540E060E181E00E9476000895ED
S113027040E060E281E00E947600089540E060E49E
S113028081E00E947600089540E060E881E00E94E9
S11302907600089580E00E946E0180E00E94EA00EA
S11302A0C0E008EE13E080E00E948E0180E00E942E
S11302B08E018230C1F7CF5F80E00E940A01C09FA7
S11302C0B001C19F700D1124072E000C880B990BEF
S11302D00E94360280E00E942A01E5CF813061F05D
S11302E028F0823079F0833099F0089540E060E19D
S11302F082E00E943600089540E064E081E00E94BC
S11303003600089540E064E080E00E9436000895DD
S113031040E068E080E00E9436000895813061F199
S113032038F0823009F44CC0833009F46BC08CC0BF
S113033060E182E00E94B60081110FC062E370E0C8
S113034080E090E00E94360260E182E00E94B60004
S1130350882309F47BC080E0089562E370E080E0C4
S113036090E00E94360260E182E00E94B600882399
S113037009F46EC080E0089564E081E00E94B60054
S113038081110FC062E370E080E090E00E943602C9
S113039064E081E00E94B600882309F45BC080E039
S11303A0089562E370E080E090E00E94360264E029
S11303B081E00E94B600882309F44EC080E00895CD
S11303C064E080E00E94B60081110EC062E370E038
S11303D080E090E00E94360264E080E00E94B60073
S11303E08823E1F180E0089562E370E080E090E02A
S11303F00E94360264E080E00E94B600882381F106
S113040080E0089568E080E00E94B60081110EC08B
S113041062E370E080E090E00E94360268E080E0F1
S11304200E94B6008823F1F080E0089562E370E052
S113043080E090E00E94360268E080E00E94B6000E
S1130440882391F080E0089580E0089582E0089583
S113045082E0089582E0089582E0089582E008959C
S113046082E0089582E0089582E00895CF92DF92B9
S1130470EF92FF92CF93DF9300D000D0CDB7DEB7D9
S11304806B017C0119821A821B821C82672B682BE8
S1130490692BC9F41EC089819A81AB81BC81019604
S11304A0A11DB11D89839A83AB83BC83215031097B
S11304B091F74F5F5F4F6F4F7F4FC416D506E60627
S11304C0F70621F406C040E050E0BA012EE531E021
S11304D0E2CF0F900F900F900F90DF91CF91FF908C
S10F04E0EF90DF90CF900895F894FFCFC8
S9030000FC
