S01100004750494F5F524551372E7372656366
S11300000C943E000C9448000C9448000C94480056
S11300100C9448000C9448000C9448000C9448003C
S11300200C9448000C9448000C9448000C9448002C
S11300300C9448000C9448000C9448000C9448001C
S11300400C9448000C9448000C9448000C9448000C
S11300500C9448001D01320147015C0171018601C5
S11300609B01B001C501DA01FA010F022402390231
S11300704E02630278028D02A202B70211241FBE4F
S1130080CFE5D8E0DEBFCDBF0E94CA000C942103A7
S11300900C9400008130A1F028F08230F9F0833014
S11300A059F10895442319F04F3F31F008958AB36C
S11300B0609568236ABB08958AB3682B6ABB089568
S11300C0442319F04F3F31F0089587B360956823B6
S11300D067BB089587B3682B67BB0895442319F061
S11300E04F3F31F0089584B36095682364BB08954D
S11300F084B3682B64BB0895442319F04F3F31F057
S1130100089581B36095682361BB089581B3682B1A
S113011061BB08958130A1F028F08230F9F083307A
S113012059F10895442319F04F3F31F008958BB3EA
S1130130609568236BBB08958BB3682B6BBB0895E4
S1130140442319F04F3F31F0089588B36095682334
S113015068BB089588B3682B68BB0895442319F0DD
S11301604F3F31F0089585B36095682365BB0895CA
S113017085B3682B65BB0895442319F04F3F31F0D4
S1130180089582B36095682362BB089582B3682B97
S113019062BB089580E00E94EC0081E00E94EC00C4
S11301A063E080E00E940C0180E00E94CC0260E0E9
S11301B080E00E940C01C1E001C0C0E068EE73E081
S11301C080E090E00E94DD026C2F80E00E940C0130
S11301D0CF5FC93099F7F1CF882319F0813089F0C6
S11301E008954FEF6FE081E00E944A004FEF64E012
S11301F083E00E944A0040E06FE081E00E948A00B0
S113020008954FEF6FE081E00E944A004FEF68E0ED
S113021083E00E944A000895882321F0813009F484
S1130220DEC00895862F90E08A30910508F0B3C1AE
S1130230FC01E65DFF4F0C941B0340E061E081E0AC
S11302400E948A0040E062E081E00E948A0040E06F
S113025064E081E00E948A0040E068E081E00E945E
S11302608A0008954FEF61E081E00E948A0040E037
S113027062E081E00E948A0040E064E081E00E9444
S11302808A0040E068E081E00E948A00089540E02E
S113029061E081E00E948A004FEF62E081E00E9409
S11302A08A0040E064E081E00E948A0040E068E067
S11302B081E00E948A0008954FEF61E081E00E948E
S11302C08A004FEF62E081E00E948A0040E064E02F
S11302D081E00E948A0040E068E081E00E948A0098
S11302E0089540E061E081E00E948A0040E062E01D
S11302F081E00E948A004FEF64E081E00E948A005E
S113030040E068E081E00E948A0008954FEF61E0D8
S113031081E00E948A0040E062E081E00E948A005D
S11303204FEF64E081E00E948A0040E068E081E0F1
S11303300E948A00089540E061E081E00E948A0002
S11303404FEF62E081E00E948A004FEF64E081E0B9
S11303500E948A0040E068E081E00E948A000895DB
S11303604FEF61E081E00E948A004FEF62E081E09C
S11303700E948A004FEF64E081E00E948A0040E01E
S113038068E081E00E948A00089540E061E081E035
S11303900E948A0040E062E081E00E948A0040E01E
S11303A064E081E00E948A004FEF68E081E00E94EF
S11303B08A0008954FEF61E081E00E948A0040E0E6
S11303C062E081E00E948A0040E064E081E00E94F3
S11303D08A004FEF68E081E00E948A000895862F2A
S11303E090E08A30910508F0D6C0FC01EC5CFF4F28
S11303F00C941B0340E061E081E00E948A0040E02D
S113040062E081E00E948A0040E064E081E00E94B2
S11304108A0040E068E081E00E948A0008954FEF7E
S113042061E081E00E948A0040E062E081E00E9495
S11304308A0040E064E081E00E948A0040E068E0D5
S113044081E00E948A00089540E061E081E00E941A
S11304508A004FEF62E081E00E948A0040E064E09D
S113046081E00E948A0040E068E081E00E948A0006
S113047008954FEF61E081E00E948A004FEF62E04F
S113048081E00E948A0040E064E081E00E948A00EA
S113049040E068E081E00E948A00089540E061E065
S11304A081E00E948A0040E062E081E00E948A00CC
S11304B04FEF64E081E00E948A0040E068E081E060
S11304C00E948A0008954FEF61E081E00E948A0053
S11304D040E062E081E00E948A004FEF64E081E046
S11304E00E948A0040E068E081E00E948A0008954A
S11304F040E061E081E00E948A004FEF62E081E029
S11305000E948A004FEF64E081E00E948A0040E08C
S113051068E081E00E948A0008954FEF61E081E085
S11305200E948A004FEF62E081E00E948A004FEF50
S113053064E081E00E948A0040E068E081E00E947B
S11305408A00089540E061E081E00E948A0040E072
S113055062E081E00E948A0040E064E081E00E9461
S11305608A004FEF68E081E00E948A0008954FEF0F
S113057061E081E00E948A0040E062E081E00E9444
S11305808A0040E064E081E00E948A004FEF68E066
S113059081E00E948A000895882319F0813039F09F
S11305A008954FEF64E083E00E948A0008954FEFBE
S11305B068E083E00E948A000895CF92DF92EF9270
S11305C0FF92CF93DF9300D000D0CDB7DEB76B019D
S11305D07C0119821A821B821C82672B682B692B6F
S11305E0C9F41EC089819A81AB81BC810196A11D89
S11305F0B11D89839A83AB83BC832150310991F760
S11306004F5F5F4F6F4F7F4FC416D506E606F70660
S113061021F406C040E050E0BA012EE531E0E2CF1B
S11306200F900F900F900F90DF91CF91FF90EF906C
S1130630DF90CF900895EE0FFF1F0590F491E02D09
S10906400994F894FFCFB9
S9030000FC
